:020000040800F2
:1000000038050020050100083B200008CB1500083A
:10001000392000083B0400084523000800000000C8
:10002000000000000000000000000000192100088E
:1000300089040008000000003D200008C3210008DA
:100040001F0100081F0100081F0100081F01000810
:100050001F0100081F0100081F0100081F01000800
:100060001F0100081F0100081F0100081F010008F0
:100070001F0100081F0100081F0100081F010008E0
:10008000710400087D0400081F0100081F0100081A
:100090001F0100081F0100081F0100081F010008C0
:1000A0001F0100081F0100081F0100081F010008B0
:1000B0001F0100081F0100081F010008CD150008DE
:1000C0001F0100081F0100081F0100081F01000890
:1000D0001F0100081F0100081F0100081F01000880
:1000E0001F0100081F0100081F010008DFF810D0E1
:1000F00000F042F80048004721250008AFF30080D7
:10010000380500200648804706480047FEE7FEE71E
:10011000FEE7FEE7FEE7FEE7FEE7FEE7FEE7FEE7B7
:1001200025220008ED000008D2B201E000F8012B02
:10013000491EFBD270470022F6E710B513460A4667
:1001400004461946FFF7F0FF204610BD30B50B46B8
:10015000014600202022012409E021FA02F59D42F7
:1001600005D303FA02F5491B04FA02F52844151ECB
:10017000A2F10102F1DC30BD064C074D06E0E0685B
:1001800040F0010394E8070098471034AC42F6D3DE
:10019000FFF7B0FF302700085027000810B501F026
:1001A000CDFE01F0B3FE702000F022F901F048FF0F
:1001B000A82000F01DF901F043FF002000F018F91D
:1001C00001F03EFF002000F013F901F039FF01F0CB
:1001D000E6FF0A2000F059F901F098FE702000F0C7
:1001E00007F901F02DFFBE2000F002F901F028FF11
:1001F000082000F0FDF801F023FF002000F0F8F8DF
:1002000001F01EFF01F0CBFFBDE810400A2000F016
:100210003CB900002DE9F041002501F03FFF01F05D
:1002200045FF082001F0B1FF0024114F01F02EFF1F
:1002300000F045F900268021384600F081FB00B12E
:10024000012646EA4500C5B200224021384600F0AA
:100250007CFB00F034F9641CE4B2082CE6D301F016
:1002600025FF082001F091FF2846BDE8F08100003D
:10027000000C01402DE9F0418AB0002406468DF8BB
:100280001C408DF820408DF810408DF80C408DF802
:1002900018408DF814408DF81C40274625460194DF
:1002A000029400F08AF8502000F0EFF840F2E45891
:1002B00007E0404601F069FF28466D1CADB2642896
:1002C00003D200F069F80006F3D401F01FFE71209C
:1002D00000F08EF801F0B4FEFFF79CFF8DF81C00D3
:1002E0008DF8040001F019FFFFF794FF8DF820004E
:1002F0008DF8050001F011FFFFF78CFF8DF810005D
:100300008DF8060001F009FFFFF784FF8DF80C005F
:100310008DF8070001F001FFFFF77CFF8DF8180052
:100320008DF8080001F0F9FEFFF774FF8DF8140056
:100330008DF8090001F0F1FEFFF76CFF8DF81C004D
:1003400001F007FF01F02BFF062101A800F076F86D
:100350009DF81C1088421CD19DF820009DF81010BB
:10036000074341EA07209DF80C1041EA00200009EC
:1003700030609DF80C009DF8181041EA00209DF8AF
:10038000141041EA0020C0F3130070600AB0BDE809
:10039000F08134607460F9E710B501F0B7FD7120A9
:1003A00000F026F801F04CFEFFF734FF044601F0A0
:1003B000D0FE01F0F4FE204610BD10B501F0A6FD00
:1003C000702000F015F801F03BFEAC2000F010F8B2
:1003D00001F036FE332000F00BF801F031FE002072
:1003E00000F006F801F02CFEBDE8104001F0D7BE89
:1003F00070B505468026002401F050FE00F050F84C
:100400002E4202D001F060FE01E001F071FE01F029
:100410003DFE00F045F86806641C050EE4B2082CA9
:10042000EAD301F03BFE082001F0AFFE01F03EFEF2
:10043000BDE87040082001F0A8BEFEE770B5044694
:10044000FF20002231250FE0A35C58400823060658
:1004500002D585EA400000E040005B1EC0B213F008
:10046000FF03F4D1521CD2B28A42EDD370BD00001A
:10047000014800F08BB8000068000020014800F03F
:1004800085B80000AC000020704710B503464FF45B
:100490007A7402E0204601F078FE5B1EFAD210BDAD
:1004A00000B5012000F01DF8012000F01AF801202D
:1004B00000F017F801205DF804EB00F012B800B569
:1004C000012000F00EF8012000F00BF8012000F0F0
:1004D00008F8012000F005F801205DF804EBAFF307
:1004E0000080401EFDD2704772B6FEE710B590F84E
:1004F00021100024022903D00421816301243DE05E
:1005000001680A6822F00E020A6001680A6822F097
:1005100001020A601A4A0168914201D1012121E0D9
:10052000174A1432914201D110211BE0144A28329B
:10053000914201D1891515E0114A3C32914201D115
:1005400089140FE00E4A5032914202D14FF48031AB
:1005500008E00B4A6432914202D14FF4801101E06D
:100560004FF08071064A083A5160012180F821104D
:10057000002180F82010416B01B18847204610BD52
:100580000800024090F82100704700002DE9F05F5C
:10059000C16B0C6801680B68D0F840C0042202FAF5
:1005A0000CF2494DDFF824A1494E4A4FDFF828B13B
:1005B000DFF828E122422CD05A072AD50A68920691
:1005C00003D40A6822F004020A600168A94201D13A
:1005D000042219E0514501D1402215E0B14202D177
:1005E0004FF4806210E0B94202D14FF480420BE038
:1005F000594502D14FF4802206E0714502D14FF4F3
:10060000800201E04FF080622F4908394A60C16AD8
:100610003BE04FF0020808FA0CF818EA040F4FF01C
:1006200000094FF0010235D05FEA837832D50B68BC
:100630009B0605D40B6823F00A030B6080F8212089
:100640000168A94201D1022219E0514501D12022BD
:1006500015E0B14202D14FF4007210E0B94202D16C
:100660004FF400520BE0594502D14FF4003206E03E
:10067000714502D14FF4001201E04FF000721249AF
:1006800008394A6080F82090816A00291AD0BDE8B4
:10069000F05F0847082505FA0CF5254212D01B0724
:1006A00010D50B6823F00E030B6090F84010C36B5D
:1006B00002FA01F15960826380F8212080F82090CD
:1006C000016BE2E7BDE8F09F080002401C00024019
:1006D0003000024044000240580002406C000240DA
:1006E00030B528B308C8134914221944B1FBF2F1FC
:1006F0008900C16310498163022141771A6843F67A
:10070000F0718A43D0E900142143D0E902452C431B
:1007100021430469214344692143846921431143EE
:10072000196000214163012242770177084630BDFC
:10073000012030BDF8FFFDBF0000024070B5044647
:1007400000F008F90546601C02D004480078044413
:1007500000F000F9401BA042FAD370BD0000002059
:100760002DE9F84FDFF8B891002409F1040A0AF1E5
:10077000040B23460F270BF1040EC9E00125A54009
:100780002A40AA427DD1674ED1F804C0ACEB0608DE
:10079000B44532D014DCBCF1030F3AD009DCBCF113
:1007A000000F2AD0BCF1010F1CD0BCF1020F31D1D7
:1007B0001DE0BCF1110F17D0BCF1120F2AD119E0C6
:1007C000B8F5881F19D006DCB8F5803F15D0B8F50C
:1007D000801F1FD111E0B8F5001F0ED0B8F5041F1F
:1007E00018D10AE0CB6815E0CB681B1D12E0CB687E
:1007F00008330FE0CB680C330CE08B682BB1012B76
:100800004FF0080303D0456104E0042302E00561D2
:1008100000E00023FF2A01D8064601E000F10406AB
:100820004FEA840501D9A5F12005D6F8008007FA22
:1008300005FC28EA0C0803FA05F548EA0508C6F89D
:1008400000804D68ED0062D5374DAE6946F0010677
:10085000AE61AD6924F0030605F001050095334D46
:1008600006EB050CDCF80850A607360F07FA06F869
:1008700025EA0805DFF8B880404503D14FF00008AD
:1008800017E044E0DFF8AC80404502D14FF00108AA
:100890000FE0DFF8A480404502D14FF0020808E0E5
:1008A000DFF89880404502D14FF0030801E04FF097
:1008B000040808FA06F848EA0508CCF808804D68EC
:1008C000D9F80060ED034D4601D5164300E096438C
:1008D0002E604D68DAF80060AD03554601D5164329
:1008E00000E096432E604D68DBF80060ED025D4647
:1008F00001D5164300E096432E604D68DEF8006097
:10090000AD02754601D5164300E096432E60641C87
:100910000D682A46E5407FF431AFBDE8F88F00004E
:1009200000040140000011100010024000000140CE
:1009300000080140000C014000100140001401407B
:100940008068084000D0012070470AB101617047FB
:100950000904FBE7014880687047000000000020A0
:10096000704770472DE9F047026800215368C66A56
:1009700090F83E4090F83D50102C12D0402C10D0F2
:10098000046C002C7DD05469E443A6077AD4DE437E
:10099000B60577D4036C03B19169BDE8F04701F067
:1009A000E3B9976951694FF42A0CC9435FEAC178EA
:1009B0004FF02A4904D066452AD04E4528D010E091
:1009C000DE43B6050DD4C16A614501D1012103E0C2
:1009D000C16A494501D10821C162BDE8F04701F073
:1009E0002DB90E0716D4DE43B60513D4416CC9B237
:1009F0001161416B09B1896A29B9816B002907D05E
:100A0000896A002904D00068416841F400614160AE
:100A1000BDE8F0878E0706D4DE43B60503D4BDE8F3
:100A2000F04701F05FB8FE43526876074FEA025282
:100A30001DD4002AECDB0A0608D4DA43520505D49B
:100A4000490705D5BDE8F04700F0F0BF4907DFD4FE
:100A5000D9438905DCD4212D05D0402CD8D1BDE85F
:100A6000F04701F031B9BDE8F04700F09DBF002A22
:100A7000CEDB4A060BD4DA43520508D4490708D521
:100A800001E00DE00EE0BDE8F04700F019BF4907B6
:100A9000BED4D9438905BBD4BDE8F04700F0A6BE5B
:100AA000916970E7E10606D4D943890503D4BDE80E
:100AB000F04701F07DB92821212D27D0292D25D0FF
:100AC000650655D4DD436D0552D4640752D590F8C0
:100AD0003D30448D002C9BD01269446A2270426ADA
:100AE000521C4262428D521E4285428D002A8FD195
:100AF0002A2B8DD10268536823F48063536022222D
:100B0000026380F83D1000F073F981E7250623D4D5
:100B1000DD436D0520D4640720D590F83D30448D29
:100B2000002CF2D0446A24781461426A521C42625A
:100B3000428D521E4285428D002AE6D1292BE4D1F6
:100B40000268536823F4806353602122026380F8B3
:100B50003D1000F04EF95BE76107D6D4D943890513
:100B6000D3D4418D0029D0D0416A097811610AE0BF
:100B70006107CAD4D9438905C7D4418D0029C4D09F
:100B80001169426A1170416A491C4162418D491ED6
:100B900041853DE77047000070B5040025D094F80A
:100BA0003D00002520B984F83C50204600F0BEF8F6
:100BB000242084F83D002068016821F001010160D3
:100BC0002068016841F4004101602068016821F457
:100BD0000041016000F03CFA4D4A6168914201D841
:100BE0004C4900E04C49884201D2012070BD4B497C
:100BF0002368B0FBF1F15E6826F03F060E435E60AD
:100C00006368934206D94FF4967359434FF47A734D
:100C1000B1FBF3F12368491C1E6A26F03F063143FD
:100C200019626168914210D84900401EB0FBF1F290
:100C3000521CC2F30B02042A01D2042022E0B0FBB2
:100C4000F1F0401CC0F30B001CE0A268F2B301EB12
:100C5000C10303EB0116431EB3FBF6F35B1C43F425
:100C600080431B0549D092B301EBC10202EB011195
:100C7000401EB0FBF1F0401CC0F30B0040F480407C
:100C800040F400402168CA694CF6FF739A43104350
:100C9000C861D4E9071001432068026822F0C0024D
:100CA00011430160D4E9030101432068826848F2DE
:100CB000FF339A4311438160D4E905010843216859
:100CC000CA6822F0FF021043C86001E00EE016E09F
:100CD0002068016841F0010101602564202084F84A
:100CE0003D00256384F83E50002070BD01EB4106B5
:100CF000431EB3FBF6F35B1CB3E70120C2E701EB35
:100D00004101401EB0FBF1F0401CC0F30B00B7E7FF
:100D1000A086010080841E0000093D0040420F00B3
:100D2000704770477047704770470000F0B585B056
:100D30000024064600940194029403940068274915
:100D4000884249D1264DA86940F00800A861A869E9
:100D5000694600F008000490C02000901220019025
:100D6000032003901F48FFF7FBFCE86940F40010E4
:100D7000E861E8691D4D00F4001004901A488027CE
:100D800001C5102091C5194845F810496C61AC6146
:100D9000EC61FFF7A5FC08B1FFF7A6FB75636E6277
:100DA000124D114844351430C5E90004C5E9024725
:100DB0002C616C61AC612846EC61FFF791FC08B1D5
:100DC000FFF792FBB563002211461F206E6200F010
:100DD00077F81F2000F066F805B0F0BD0054004021
:100DE00000100240000C01406C000240680000202E
:100DF00070477047024881680278114481607047EB
:100E000000000020074810B5016841F010010160A2
:100E1000032000F075F80F2000F006F800F024F829
:100E2000002010BD0020024070B50D4D04464FF467
:100E30007A712878B1FBF0F00A490968B1FBF0F04B
:100E400000F0ECFA48B9102C07D200222146501EBF
:100E500000F036F800206C6070BD012070BD00000D
:100E6000000000200C0000200C4808B5816941F00A
:100E700001018161816901F001010091C16941F0C5
:100E80008051C161C06900F0805000900448416801
:100E900021F0E06141F00071416008BD00100240A6
:100EA00000000140002809DB00F01F0201219140F1
:100EB0004009800000F1E020C0F8001170470000F8
:100EC000F0B40E4B1B680C46C3F30223C3F10705B5
:100ED000042D00D90425191D072901D2002300E0A3
:100EE000DB1E012606FA05F1491E214099409E406D
:100EF000761E16403143F0BC01F036BA0CED00E02E
:100F0000064900F0070208684FF6FF03184040EA60
:100F10000220034A10430860704700000CED00E017
:100F20000000FA052DE9F0470F46050061D0434E59
:100F3000306800F00700B84209D2306820F007009E
:100F400038433060306800F00700B84251D128685B
:100F50003B4C810712D5400703D5606840F4E06040
:100F600060602878000703D5606840F460506060D6
:100F70006068A96820F0F000084360602878C00726
:100F800028D06868012810D02168022810D089076D
:100F900000292EDA616821F0030101436160FFF747
:100FA000D9FC804641F288390DE021688903EFE7DA
:100FB0008901EDE7FFF7CEFCA0EB0801494502D916
:100FC0000320BDE8F0876068696800F00C00B0EBB2
:100FD000810FEFD1306800F00700B8420BD93068BC
:100FE00020F0070038433060306800F00700B84256
:100FF00001D00120E5E72878400705D56068E96859
:1010000020F4E060084360602878000706D5606837
:10101000296920F4605040EAC100606000F038F8AF
:101020006168084AC1F30311515CC8400649086071
:1010300006480068FFF7F8FE0020C2E700200240E3
:1010400000100240182700080C00002004000020B7
:101050000448054900684968044AC1F30221515C0B
:10106000C84070470C0000200010024028270008EC
:101070000448054900684968044AC1F3C221515C2B
:10108000C84070470C0000200010024028270008CC
:1010900012A185B00FC98DE80F0014A0144A006892
:1010A00004905168134801F00C03042B10D0082B56
:1010B0000ED1C1F38343C9031DF803000AD551685B
:1010C00004AAC1F34041515C0A4A5043B0FBF1F01D
:1010D00005B0704708494843FAE7000002030405D9
:1010E000060708090A0B0C0D0E0F10100102000074
:1010F0000010024000127A0000093D002DE9F84F6F
:10110000040070D02078C04DC00749D06868C0F393
:101110008100012807D06868C0F38100022809D146
:101120006868C00306D52868800339D56068002840
:10113000E7D035E06068B0F5803F0BD010B1B0F576
:10114000A02F11D0286820F480302860286820F46F
:10115000802002E0286840F480302860606890B108
:10116000FFF7F8FB06460AE0286840F48020286074
:10117000F0E700BFFFF7EEFB801B642873D82868F8
:101180008003F7D50CE0FFF7E5FB064605E000BF5E
:10119000FFF7E0FB801B6428F0D828688003F7D4B1
:1011A00020789A4E80074FF001094FF0000839D59A
:1011B000686810F00C0F07D06868C0F3810002283F
:1011C00009D16868C00306D42868800714D520694F
:1011D000012808D110E02069B0B1C6F80090FFF7EF
:1011E000B9FB074605E00AE1FFF7B4FBC01B022884
:1011F000C4D828688007F7D52868616920F0F8000E
:1012000040EAC10028600DE0C6F80080FFF7A2FBAD
:10121000074604E0FFF79EFBC01B022823D828687E
:101220008007F7D4207800072CD57948A169D9B177
:10123000C0F80090FFF78EFB074604E0FFF78AFB3B
:10124000C01B02280FD8686A8007F7D571484FF491
:10125000FA510068B0FBF1F0009000BF0098411E09
:101260000091FAD20EE080E0C0F80080FFF772FB38
:10127000074604E0FFF76EFBC01B022875D8686ABA
:101280008007F7D42078400760D5E8690027C000C0
:1012900008D4E86940F08050E861E869012700F06F
:1012A000805000905C480168C90513D401688346EA
:1012B00041F480710160FFF74DFB824606E000BFFC
:1012C000FFF748FBA0EB0A0064284ED8DBF80000CB
:1012D000C005F5D5E06801280AD008B1052813D06B
:1012E000286A20F001002862286A20F0040002E049
:1012F000286A40F001002862E06841F2883B98B11A
:10130000FFF728FB82460BE0286A40F004002862C1
:10131000EEE700BFFFF71EFBA0EB0A0159455AD8C4
:10132000286A8007F6D50CE0FFF714FB824605E03B
:10133000FFF710FBA0EB0A0159454CD8286A80073B
:10134000F6D41FB1E86920F08050E861E06988B305
:101350006968C1F38101022944D00228C6F860807F
:1013600004D0FFF7F7FA044638E034E0FFF7F2FA6A
:10137000074604E0FFF7EEFAC01B02282BD82868C6
:101380008001F7D4206AB0F5803F05D16868A16874
:1013900020F4003008436860D4E908010843696814
:1013A00021F4741108436860C6F86090FFF7D2FA20
:1013B000044606E025E000BFFFF7CCFA001B022838
:1013C00009D828688001F7D51BE000BFFFF7C2FAF3
:1013D000001B022802D90320BDE8F88F286880018D
:1013E000F4D40EE00128F7D06868226A00F4803156
:1013F000914204D1616A00F47010884201D001204A
:10140000EAE70020E8E70000001002400000424246
:10141000800442420C0000200070004010B5401EC5
:10142000B0F1807F01D3012010BD4FF0E024606156
:101430000F21601700F098FF0020A06107202061B5
:10144000002010BD70B5040004D094F83D000025C4
:1014500010B106E0012070BD84F83C50204600F039
:1014600023F8242084F83D002068C16821F400514D
:10147000C160204600F0D8FE2068016921F4904147
:1014800001612068416921F02A0141612068C16839
:1014900041F40051C1602564202084F83D0084F8A7
:1014A0003E00002070BD000030B585B000240094DF
:1014B00001940294039400681449884224D114488A
:1014C000816941F480418161816901F48041049125
:1014D000816941F00401816180690E4D00F00400D2
:1014E00004904FF4007000900220019003200390BC
:1014F00069462846FFF734F92815CDE90004694606
:1015000028460294FFF72CF905B030BD00380140A1
:1015100000100240000801402DE9F843044690F80D
:101520003D001F4616460D4620284CD1C5B1BEB120
:1015300094F83C00012846D0012084F83C004FF08C
:101540000008C4F84080212084F83D00FFF702FA2B
:10155000A6848146E684A068B0F5805F03D004E0ED
:101560000120BDE8F883206928B12E465FF0000510
:1015700084F83C800EE00026FAE78021204600F047
:10158000AFFEA0B9AEB116F8010B21684860E08C3F
:10159000401EE084E08C4B464FF00002009700288C
:1015A000EBD14FF04001204600F09AFE30B103200D
:1015B000D7E735F8020BC0F30800E6E7202084F8EF
:1015C0003D000020CDE70220CBE7FEE70148FFF712
:1015D000C9B900001400002038B5406A002190F815
:1015E0003D202B4B46F2A8141B68B3FBF4F3C3EB6E
:1015F000C30303EB830300933BB15B1E00930368BB
:101600001B689B0505D5009BF6E7036C43F02003A0
:101610000364436B03B19962836B03B199620368FE
:101620001C6824F480641C604185436B03B15963DA
:10163000836B03B1596303681C6824F001041C60C8
:1016400090F83D402023602C0BD0282434EA02027D
:101650000FD080F83D3080F83E1000BFFFF79AFAB7
:1016600038BD80F83D3080F83E100164FFF778F90E
:1016700038BD0268136843F0010313600268136801
:1016800043F480631360016380F83D40E6E70000A7
:101690000C00002070B5044690F83D0094F83E1010
:1016A000102901D0402906D1222804D121680A68D6
:1016B00022F400620A60282131EA00024FF000059E
:1016C0004FF0200626D021684968090505D4602816
:1016D00003D084F83D6084F83E502563206841685B
:1016E000090537D5416821F400614160606B3D49CF
:1016F00090F82120012A11D04163606BFEF7F6FEBD
:1017000038B32068016821F00101016084F83D6070
:10171000606B1CE0256384F83D10DFE7A06B41633C
:10172000A06BFEF7E3FEA0B120684169C9434906FA
:1017300005D40069616A0870606A401C60622068B4
:10174000016821F00101016084F83D60A06B416BEC
:10175000884710E094F83D10602910D04169C943D2
:10176000490605D40069616A0870606A401C6062BD
:101770002046FFF70FFA206CC1071CD115E084F852
:101780003D6025644169C943490605D40069616A21
:101790000870606A401C60622068016821F00101E5
:1017A00001602046FFF7DCF8E5E7810703D4410735
:1017B00001D4000704D52068416821F4E06141604C
:1017C00094F83D00216C49070BD5282809D106481B
:1017D000E062256384F83D6084F83E502046FFF7C0
:1017E0009FFA70BDD91500080000FFFF10B5C26A4E
:1017F000438D0168042B06D0438D032B08D0438D05
:10180000022B1DD012E04A6822F480624A600CE08C
:101810004B6823F480634B60042A06D0022A04D06C
:1018200001680A6822F480620A6001680969426AF4
:101830001170416A491C4162418D491E418510BDAC
:10184000012A30D0102A2ED0042A30D0022A2ED0DD
:101850000A6842F400720A6001680969426A1170FC
:10186000416A491C4162428D521E428502681269DA
:101870000A70416A491C4162418D491E41850168D7
:101880004A6822F440724A60202180F83D1090F8A6
:101890003E200021402A80F83E100CD01221016326
:1018A000FFF73FFA10BD0A6822F48062D3E70A68A6
:1018B00042F48062CFE70163FFF735FA10BD000004
:1018C00038B590F83D10222914D1418D032912D941
:1018D00001680969426A1170416A491C4162418D7F
:1018E000491E4185418D032904D10068416821F4D6
:1018F0008061416038BDC26A022AFBD0012901D053
:101900000029F7D1274946F2A81300220968B1FB44
:10191000F3F101EB8101009101682023009C641E1A
:10192000009422D00C68A405F8D40C6824F48064D8
:101930000C6001684C6824F4E0644C60016809693B
:10194000446A2170416A491C4162418D491E4185AA
:1019500080F83D3090F83E1080F83E2040291DD0A0
:1019600012210163FFF7DDF938BD046C44F0200457
:1019700004644C6824F4E0644C6001680969446ABA
:101980002170416A491C4162418D491E418580F8A0
:101990003D3080F83E20FFF7FDF838BD0263FFF7C9
:1019A000C2F938BD0C00002010B5C26A90F83D1095
:1019B00021290BD1418D51B1416A02680978116129
:1019C000416A491C4162418D491E418510BD202359
:1019D0000021082A13D0202A11D012F5803F0ED002
:1019E0000268546824F4E06454601122026380F8B1
:1019F0003E1080F83D3000BFFFF794F910BD02683B
:101A0000546824F4E06454600268146844F4007478
:101A10001460016380F83D3090F83E2080F83E105D
:101A2000402AE9D1FFF780F910BD000010B590F809
:101A30003D1090F83E30C26A048DB4B1212903D024
:101A4000402B11D122290FD1418DE1B390F83E10E6
:101A5000402942D0416A026809781161416A491CF3
:101A60004162418D491E418510BD2129E8D12023C5
:101A70000021082A13D0202A11D012F5803F0ED061
:101A80000268546824F4E06454601122026380F810
:101A90003E1080F83D3000BFFFF744F910BD0268EA
:101AA000546824F4E06454600268146844F40074D8
:101AB0001460016380F83D3090F83E2080F83E10BD
:101AC000402AE9D100E002E0FFF72EF910BD0068DE
:101AD000416821F48061416010BDBDE8104000F014
:101AE000F3B8000078B590F83E50C26A046B90F8E5
:101AF0003D6000230168222E73D1066D0EB9402D82
:101B00006FD0056D1DB90569B5F5404F1BD0458DEA
:101B100095B3468D484D012E20D0448D022C4DD0DA
:101B20000C6844F480640C6001684C68240579D525
:101B3000AA4273D0012A71D0082A6FD0102A6DD022
:101B4000202A6BD06EE04A698A6900920A6842F4E2
:101B500080720A60016D491C016578BDAA4214D1EA
:101B60000A6822F480620A6001684A68120504D596
:101B70000A6822F4806217E0FFE74A698A690092E6
:101B80000A6842F400720A6050E0082A10D0202A45
:101B90000ED0122C0AD0042A03D0022A01D0102A17
:101BA000E6D10A6842F480620A603BE0012ADFD095
:101BB0000A6822F480620A600168DEE7042A11D014
:101BC000022A0FD0102A0DD00C6844F400640C6077
:101BD00001684C698C6900940C6824F480640C6082
:101BE00008E025E00C6844F480640C6001684C69EE
:101BF0008969009101684C68240517D5AA4207D06D
:101C0000012A05D0082A03D0102A01D0202A0DD19C
:101C10004A6842F480524A6008E0FFE74A6842F4AA
:101C200080524A6001684A6989690091036578BDFC
:101C300048698869009078BD0000FFFF90F83E1069
:101C4000402910D00169B1F5804F19D0016DA9B3B9
:101C5000016D012910D1416C5FF0F10201F4407176
:101C600042EAD11106E0016D0029416C05D0C9B2EC
:101C700041F0010100680161704701F0FE01F9E7E0
:101C800090F83D102129416C09D0C9B241F0010101
:101C900002681161416B29B1896A49B902E001F01A
:101CA000FE01F5E7816B0029E6D0896A0029E3D0BF
:101CB0000068416841F4006141607047FFE7416C92
:101CC000F02201F44071CBE710B590F83D10026DA1
:101CD00022B3026D012A2FD0026D022A1DD12229C2
:101CE0002FD0428D0AB1212933D0428D002A14D140
:101CF000212912D101684A6822F4E0624A60016831
:101D00000A6842F400720A6000210163202280F810
:101D10003D2080F83E10FFF707F810BDC16C012987
:101D2000816C02D0C1F3072108E00268C9B21161D9
:101D3000016D891C016510BD816CC9B20268116119
:101D400004E001680A6842F480720A60016D491C6F
:101D5000F0E7416A026809781161416A491C4162F1
:101D6000418D491E418510BD38B50C4690F83D2087
:101D700000212825954302680B4605D051699169D9
:101D8000009180F83C3038BD556825F48065556079
:101D9000E243540700D50121120601D5828900E0F3
:101DA000028B80F83C3092B2FEF7DBFD38BD0000BC
:101DB000F8B590F83D6004460068416821F4E061A0
:101DC00041602068002541690091016841F00101EE
:101DD00001602068016821F4806101602068416829
:101DE000090520D5474F222E48D02A2E46D0616BB8
:101DF000096849686185618D19B1216C41F0040160
:101E00002164416821F400614160606BFEF7BAFB18
:101E1000012808D0606B4763606BFEF767FB10B169
:101E2000606B416B8847608D08B320684169C94386
:101E3000490708D40069616A0870606A401C6062E2
:101E4000608D401E608520684169C943490608D4F9
:101E50000069616A0870606A401C6062608D401EA3
:101E60006085608D18B1206C40F004002064206C07
:101E700000B32046BDE8F840FFF70CBCA16B096831
:101E800049686185618D19B1216C41F004012164BB
:101E9000416821F400614160A06BFEF773FB0128EB
:101EA000C1D0A06B4763A06BFEF720FB0028BAD01F
:101EB000A06BB6E72A2E06D12563282084F83D00C2
:101EC0002046FEF795FF94F83D10202028290DD0DC
:101ED000216B222901D0222E07D1256384F83D00F1
:101EE00084F83E502046FEF783FFF8BD0649E162C4
:101EF000256384F83D0084F83E502046FEF710FF2D
:101F0000F8BD0000D91500080000FFFF10B500F073
:101F1000DBF8082000F039F900F0B8F8082000F0EC
:101F200034F900F0E5F8082000F02FF900F0B6F8D9
:101F3000BDE81040082000F028B900002DE9FF415D
:101F400001248020CDE900040D4E03256946039548
:101F50003046FEF705FC0122D70339463046FEF72E
:101F6000F4FC4020CDE90004694603953046FEF7B5
:101F7000F7FB012239463046FEF7E7FCBDE8FF815A
:101F8000000C01400D4808B5416941F00101416173
:101F90004069002200F00100009011461020FEF779
:101FA0008FFF1020FEF77EFF002211461120FEF762
:101FB00087FFBDE808401120FEF774BF0010024003
:101FC0000D4810B50B4901600C49416000214FF4E8
:101FD00080428160C0E9031241618161C161016297
:101FE000FEF7DAFD002803D0BDE81040FEF77CBA0A
:101FF00010BD00000054004014000020A086010025
:102000000C4810B50A4901604FF4E13141600021EC
:1020100081600C22C160C0E904128161C161FFF7D7
:1020200011FA002803D0BDE81040FEF75DBA10BDDC
:1020300000380140F0000020FEE7FEE77047000096
:1020400070B5002400F02AF800F030F8082000F005
:102050009CF800F01BF8082000F097F80A4D01E00A
:10206000641CA4B280212846FEF76AFC08B1642CE7
:10207000F6D3642C06D000F011F8082000F085F8A3
:10208000012070BD002070BD000C014001224021E4
:102090000148FEF75ABC0000000C0140002240211C
:1020A0000148FEF752BC0000000C01401FB50020A3
:1020B0000190802000900320039069460148FEF7BC
:1020C0004FFB1FBD000C01401FB501200190802077
:1020D00000900320054C039069462046FEF740FB24
:1020E000012280212046FEF730FC1FBD000C01407C
:1020F0001FB501200190802000900320054C039023
:1021000069462046FEF72CFB002280212046FEF780
:102110001CFC1FBD000C0140704710B5FFF7BEFF4F
:10212000082000F032F8FFF7E3FF082000F02DF858
:10213000FFF7ACFF082000F028F8FFF7AFFF0820FA
:1021400000F023F8FFF7B2FFBDE81040082000F0D0
:102150001CB810B5FFF7A2FF082000F016F8FFF733
:10216000B3FF082000F011F8FFF790FF082000F0FF
:102170000CF8FFF793FF082000F007F8FFF7B8FF0F
:10218000BDE810400820AFF3008000B5801E0200BB
:1021900004D00120FEF7A5F9521EFAD100BD10B5FA
:1021A000FFF7A6FF0820FFF7F0FFFFF76FFF0820FB
:1021B000FFF7EBFFFFF788FFBDE810400820FFF7AF
:1021C000E4BFFEF717BE30B58FB028216846FDF793
:1021D000B2FF14210AA8FDF7AEFF01210804CDE9E2
:1021E00000100024029402250491CDE907504FF419
:1021F000E01009906846FEF781FF08B172B6FEE76D
:102200000F20CDE90A054FF48060CDE90C40022192
:102210000AA80E94FEF786FE002801D072B6FEE7EB
:102220000FB030BD7047000070B50446006801690A
:10223000E26821F44051114301612169A06808431B
:10224000616908432168CA6841F20C639A430243FA
:10225000CA6020684169A26921F44071114341615B
:102260001E492068884202D1FEF702FF01E0FEF716
:10227000EFFE00EBC00101EB0012606864218000FA
:10228000B2FBF0F3B3FBF1F36FF018067343B2FB4C
:10229000F0F5B2FBF0F605EB8305322303EB0515F1
:1022A000B5FBF1F5B6FBF1F605F0F00505EB06150B
:1022B000B2FBF0F6B2FBF0F0B0FBF1F06FF01802F9
:1022C000504306EB800003EB0010B0FBF1F02168F7
:1022D00000F00F002844886070BD00000038014005
:1022E0002DE9F041984617460E460446069D1DE02E
:1022F000681C1BD02DB1FEF72DFBA0EB0800A842F7
:1023000014D92068C16821F4D071C1602068416986
:1023100021F001014161202084F83D0084F83E0055
:10232000002084F83C000320BDE8F08120680068AC
:1023300036EA000004D00020B842D9D00020F3E7EC
:102340000120F9E7FEE700000FB4054B10B503A923
:10235000044A029800F028F810BC5DF814FB000055
:10236000FD240008100000200907090E002804DBE6
:1023700000F1E02080F80014704700F00F0000F139
:10238000E02080F8141D704702E008C8121F08C141
:10239000002AFAD170477047002001E001C1121FE6
:1023A000002AFBD1704700002DE9FF4F89B09B4602
:1023B0000446002506E025280BD05A460B99904785
:1023C000641C6D1C20780028F5D10DB02846BDE8AE
:1023D000F08F0027B8460122474900E0074314F870
:1023E000013F203B02FA03F00842F7D120782E2863
:1023F00019D114F8010F47F004072A280ED06FF006
:102400002F022078A0F1300109290CD808EB8801AF
:1024100002EB410100EB0108641CF2E70A98641C1E
:1024200050F8048B0A9020780028CED0642808D079
:10243000692806D075281ED05A460B9990476D1C06
:1024400058E00A994FF00A0901C90A91002802DAF6
:1024500040422D2102E0390504D52B218DF82010B2
:10246000012103E0F90704D02021F7E78A4608AEEE
:102470000DE00021FAE70A994FF00A0901C90A9113
:10248000F7E74946FDF762FE303106F8011D0028E6
:10249000F7D1ADEB060000F12009780701D44FF029
:1024A0000108C84502DDA8EB090000E000208046D5
:1024B000002706E008A85A46C05D0B9990476D1C9E
:1024C0007F1C5745F6DB04E030205A460B999047B5
:1024D0006D1CB8F10001A8F10108F5DC05E016F863
:1024E000010B5A460B9990476D1CB9F10001A9F1F7
:1024F0000109F4DC641C65E70928010013B54FF6F7
:10250000FF73012269460548FFF706F80348006893
:102510000168C9434906FBD400981CBDF0000020A7
:1025200086B0002003904FF4FA7404902046FDF723
:10253000ACFFFEF767FCFFF746FEFFF761FDFFF714
:1025400021FDFFF73DFDFFF75BFDFDF727FE204670
:10255000FDF79BFF6742642566000A2403A8FDF788
:1025600089FE03984FF47A714843000D0590049852
:102570004900484307EB1050009058A0FFF7E4FED5
:102580006420FEF7DBF858A0FFF7DEFE6420FEF7BC
:10259000D5F855A0FFF7D8FE6420FEF7CFF852A07B
:1025A000FFF7D2FE6420FEF7C9F84FA0FFF7CCFE7C
:1025B0006420FEF7C3F84CA0FFF7C6FE6420FEF7C8
:1025C000BDF849A0FFF7C0FE6420FEF7B7F846A0AB
:1025D000FFF7BAFE6420FEF7B1F843A0FFF7B4FEA0
:1025E0006420FEF7ABF840A0FFF7AEFE6420FEF7D4
:1025F000A5F83DA0FFF7A8FE3CA0FFF7A5FE3046DA
:10260000FEF79CF8009890FBF4F104FB110390FB9B
:10261000F4F090FBF4F104FB1102009890FBF5F14B
:1026200033A0FFF791FE059890FBF4F104FB110332
:1026300090FBF4F090FBF4F104FB1102059890FB81
:10264000F5F12FA0FFF780FE28A0FFF77DFE30A058
:10265000FFF77AFE6420FEF771F823A0FFF774FEFF
:102660006420FEF76BF820A0FFF76EFE6420FEF7F3
:1026700065F81DA0FFF768FE6420FEF75FF81AA05A
:10268000FFF762FE6420FEF759F817A0FFF75CFE23
:102690006420FEF753F814A0FFF756FE6420FEF7FF
:1026A0004DF811A0FFF750FE6420FEF747F80EA08A
:1026B000FFF74AFE6420FEF741F80BA0FFF744FE47
:1026C0006420FEF73BF808A0FFF73EFE07A0FFF7E7
:1026D0003BFE3046FEF732F840E70000D5FDD4DA85
:1026E000BCECB2E2000000002E0000000D0A000069
:1026F000CEC2B6C83A256425642E256400000000C9
:10270000CAAAB6C83A256425642E256400000000D4
:10271000B5C8B4FD0000000000000000000000008B
:102720000102030406070809000000000102030477
:102730005027000800000020140000008823000833
:1027400064270008140000202405000098230008D6
:102750000100000010000000000000000024F40050
:042760000000000075
:04000005080000ED02
:00000001FF
